S014000044303030335F4C6162332D322E7372656309
S11300000C942E000C944B000C944B000C94960111
S11300100C944B000C944B000C944B000C946E010C
S11300200C944B000C944B000C944B000C944B0020
S11300300C944B000C944B000C944B000C944B0010
S11300400C944B000C944B000C944B000C944B0000
S11300500C944B000C944B000C944B0011241FBEC9
S1130060CFEFD4E0DEBFCDBF11E0A0E0B1E0E6E326
S1130070F7E002C005900D92A831B107D9F723E04B
S1130080A8E1B1E001C01D92A934B207E1F70E94D2
S113009051010C9499030C94000080EC8093E400CB
S11300A08FE08093E70087EB8093E50087E08093FF
S11300B0E6000895CF93DF93CDB7DEB764970FB60C
S11300C0F894DEBF0FBECDBF94E1E4E0F1E0DE01C1
S11300D0119601900D929A95E1F76630710580F5BD
S11300E0E82FF0E0F097EE0FFF1F81E090E08C0F17
S11300F09D1FE80FF91F20813181FB01F595E795DC
S1130100E451FF4FDB01A170BB2760FF02C04FE049
S113011001C040EFBF016C5E7F4F822F8F7094E06F
S1130120369527959A95E1F7109711F08295807F7F
S113013090819423892B808335966E177F0769F706
S113014064960FB6F894DEBF0FBECDBFDF91CF919A
S113015008958F929F92AF92BF92CF92DF92EF92C7
S1130160FF924B015C0182E0C82ED12CE12CF12CD2
S11301709601A701C814D904EA04FB047CF48FEFA8
S1130180C81AD80AE80AF80AC501B4010E9417037C
S1130190672B682B692B61F780E001C081E0FF9039
S11301A0EF90DF90CF90BF90AF909F908F90089585
S11301B08F929F92AF92BF92CF92DF92EF92FF9273
S11301C0CF93DF934B015C01EA01509327014093E5
S11301D0260124E630E040E050E00E9417032AE0C4
S11301E0C22ED12CE12CF12CA70196010E941703F9
S11301F0BE0180E3820F0E945A00C0912601D09173
S113020027012196D0932701C0932601C501B4018B
S1130210A70196010E941703862FBE01805DDF911E
S1130220CF91FF90EF90DF90CF90BF90AF909F90D1
S11302308F900C945A008EE191E00E94B802609174
S1130240180170911901072E000C880B990B43E0DB
S113025050E00E94D800EFCFEC01C12CD12C7601E4
S1130260C394C701B6010E94A900882329F0AE01F6
S1130270C701B6010E94D8008FEFC81AD80AE80A4D
S1130280F80AEFCFC1E08AE191E00E94B8028091C0
S1130290EF00882319F01092EF00F5CFC093EF0020
S11302A0F2CFE1E6F0E080E8808310820E944D0006
S11302B08AE191E00E94B8028EE191E00E94B802C6
S11302C060E070E08CE291E00E94E90163E070E09C
S11302D08BE191E00E94E9010E9442011F920F927A
S11302E00FB60F9211242F933F934F935F936F9305
S11302F07F938F939F93AF93BF93EF93FF938AE181
S113030091E00E94E8020E949B02FF91EF91BF914D
S1130310AF919F918F917F916F915F914F913F9199
S11303202F910F900FBE0F901F9018951F920F9250
S11303300FB60F9211242F933F934F935F936F93B4
S11303407F938F939F93AF93BF93EF93FF931F99E3
S11303500FC0809118019091190101969093190191
S1130360809318018EE191E00E94E8020E949B02B2
S1130370FF91EF91BF91AF919F918F917F916F9179
S11303805F914F913F912F910F900FBE0F901F904F
S11303901895CF93DF9300D0CDB7DEB79A838983C6
S11303A0809100019091010106960E945803892BC7
S11303B059F489819A81909301018093000161E04D
S11303C070E006960E9478030F900F90DF91CF9112
S11303D00895CF93DF9300D0CDB7DEB7F894209182
S11303E0220130912301232BA1F522E032E0309346
S11303F09A01209399012FE632E03093070220936B
S113040006022CED32E030937402209373021092B2
S1130410E1021092E00220E825B92DBB20936C0084
S113042020EC209380002DE02093810022E43FE023
S113043030938900209388001092850010928400E4
S113044022E020936F0021E030E0309323012093D9
S1130450220120910201309103013A83298321155D
S11304603105A1F0F90124813581309303012093F2
S11304700201918380837383628315821482CF0186
S113048006960E945803019799F501C0FFCF78940E
S1130490A0910001B0910101ED91FC911197129688
S11304A08D919C9113970995F894E0910001F09136
S11304B00101158214828091020190910301009739
S11304C011F095838483F0930301E09302018091FA
S11304D0240190912501009751F0FC01248135817C
S11304E030932501209324010E94C90101C0FFCF4C
S11304F0E981FA81369689819A8187599F4F918B38
S1130500808B938B828BE981FA811582148280918E
S1130510240190912501009721F0E981FA819583C6
S11305208483F0932501E093240178940F900F9035
S1130530DF91CF9108957894E0910001F091010149
S1130540158214828091240190912501009711F065
S113055095838483309759F0848195819093250104
S113056080932401CF010E94C901F8940895FFCF1C
S1130570FC01F89480819181892B29F481E090E039
S11305809183808323C0A0910001B091010115964D
S11305901C921E92149782819381009721F01596E4
S11305A09C938E931497B383A2838091240190919A
S11305B02501009751F0FC012481358130932501F8
S11305C0209324010E94C90101C0FFCF78940895AB
S11305D0FC01F89482819381892B29F1A091000177
S11305E0B091010115961C921E92149780912401DA
S11305F090912501009721F015969C938E93149762
S1130600B0932501A093240182819381009751F036
S1130610DC0114962D913C911597338322830E941B
S1130620C90103C0FFCF1182108278940895052E6A
S113063097FB1EF400940E942E0357FD07D00E94DE
S1130640360307FC03D04EF40C942E0350954095CA
S1130650309521953F4F4F4F5F4F0895909580956A
S1130660709561957F4F8F4F9F4F0895A1E21A2E89
S1130670AA1BBB1BFD010DC0AA1FBB1FEE1FFF1F42
S1130680A217B307E407F50720F0A21BB30BE40B92
S1130690F50B661F771F881F991F1A9469F76095D9
S11306A07095809590959B01AC01BD01CF01089593
S11306B0DC012D923D924D925D926D927D928D92D0
S11306C09D92AD92BD92CD92DD92ED92FD920D93ED
S11306D01D93CD93DD93FF91EF918DB78D938EB7DD
S11306E08D938FB78D93ED93FD9388279927099464
S11306F0DC01CB0181309105811D2D903D904D9001
S11307005D906D907D908D909D90AD90BD90CD90BD
S1130710DD90ED90FD900D911D91CD91DD91ED91C8
S1130720FD910D90F894FEBF0FBEEDBFED91FD91CC
S10907300994F894FFCFC8
S11307362801950151151001111E111B500B411B67
S10B0746411F1101511F510B69
S9030000FC
